:100000000C9434000C9449000C9449000C94490061
:100010000C9449000C9449000C9449000C9449003C
:100020000C9449000C9449000C9449000C9449002C
:100030000C9449000C9449000C9449000C9449001C
:100040000C9449000C9449000C9449000C9449000C
:100050000C9449000C9449000C9449000C944900FC
:100060000C9449000C94490011241FBECFEFD8E036
:10007000DEBFCDBF11E0A0E0B1E0E8E0F1E002C0FA
:1000800005900D92A830B107D9F70E9470000C942A
:1000900082000C940000982F8091C00085FFFCCF57
:1000A0009093C6000895FC0107C08091C00085FFB1
:1000B000FCCF31969093C60090819923B1F70895B3
:1000C000E2ECF0E08081866080831092C50087E6D4
:1000D0008093C400E1ECF0E0808188618083089522
:1000E000CF93DF930E946000C0E9D1E080E091E00F
:1000F0000E94530080E197E2FE013197F1F70197EA
:08010000D9F7F4CFF894FFCF0A
:080108000A4C434443530A0072
:00000001FF
