:100000000C9434000C9451000C9451000C94510049
:100010000C9451000C9451000C9451000C9451001C
:100020000C9451000C9451000C9451000C9451000C
:100030000C9451000C9451000C9451000C945100FC
:100040000C9451000C9451000C9451000C945100EC
:100050000C9451000C9451000C9451000C945100DC
:100060000C9451000C94510011241FBECFEFD8E026
:10007000DEBFCDBF11E0A0E0B1E0ECE5FBE002C0E7
:1000800005900D92A43AB107D9F711E0A4EAB1E0C6
:1000900001C01D92AE3BB107E1F70E94AB000C948A
:1000A000AC050C940000A82FB0E0FD01EE0FFF1F7F
:1000B000E759FE4F0190F081E02D808190E0A75834
:1000C000BE4F0C9002C0959587950A94E2F7817017
:1000D000089580536133C1F4A82FB0E0FD01EE0F05
:1000E000FF1FEF57FE4F0190F081E02D2081AB56AE
:1000F000BE4F81E090E00C9002C0880F991F0A94D7
:10010000E2F7282B208308956033C1F4A82FB0E0D4
:10011000FD01EE0FFF1FEF57FE4F0190F081E02D24
:100120002081AB56BE4F81E090E00C9002C0880F5A
:10013000991F0A94E2F78095822380830895FC0139
:100140008081833239F48281803421F4838161811A
:100150000E94690008954F925F926F927F928F92F2
:100160009F92AF92BF92DF92EF92FF920F931F93F5
:10017000CF93DF9388E58AB989E284B985E387B9AB
:100180000E9475018DE491E09093BB018093BA01C8
:100190008BE591E09093B9018093B80182E390E000
:1001A0000E949C018C01DD24E0E04E2EE1E05E2EF9
:1001B00070E1672E71E0772E6BE2862E61E0962E5D
:1001C00055E4A52E51E0B52E8091B8019091B9016A
:1001D0000E94A102D8018C93843239F4045010405B
:1001E000C8010E949F00BCEFDB0E0F5F1F4FD3942E
:1001F000E1E3ED1518F402531040DD2449E6E42E46
:1002000041E0F42EC0E0D0E000D000D0ADB7BEB7E2
:1002100012965C924E9211971496DC93CE9313979C
:100220000E94E302D701ED91FD917D01E0812196CD
:100230000F900F900F900F90C830D10529F7C0E0B4
:10024000D0E000D000D0EDB7FEB772826182D483D7
:10025000C3830E94E3023CEAE32E31E0F32EEC0E6E
:10026000FD1ED7018C91FE01EC55FE4F90810F9041
:100270000F900F900F90891791F100D000D0EDB73B
:10028000FEB792828182D483C3830E94E302D701A6
:100290008C9100D0EDB7FEB73196ADB7BEB71296D0
:1002A000BC92AE92119720E030E0882311F021E05B
:1002B00030E033832283D583C4830E94E302FE01AE
:1002C000E455FE4F8081FE01EC55FE4F8083EDB773
:1002D000FEB736960FB6F894FEBF0FBEEDBF21965F
:1002E000C830D10509F0ADCF6FCF1092C50087E6B9
:1002F0008093C400E0ECF0E080818D7F808386E015
:100300008093C20088E18093C10008951F93182F45
:100310008A3019F48DE00E9486018091C00085FF2B
:10032000FCCF1093C6001F9108958091C00087FFF5
:10033000FCCF8091C6000895CF93DF93BC0182303B
:10034000910510F462E070E0A091B601B091B701A0
:10035000ED01E0E0F0E040E050E021C088819981CB
:100360008617970769F48A819B81309719F09383E8
:10037000828304C09093B7018093B601FE0134C01C
:100380006817790738F44115510519F08417950756
:1003900008F4AC01FE018A819B819C01E901209750
:1003A000E9F641155105A9F1CA01861B970B04977F
:1003B00008F4BA01E0E0F0E02AC08D919C91119719
:1003C00084179507F9F46417750781F412968D91D7
:1003D0009C911397309719F09383828304C0909374
:1003E000B7018093B601FD0132964FC0CA01861B4A
:1003F000970BFD01E80FF91F6193719302978D939D
:100400009C9343C0FD01828193819C01D901109787
:10041000A1F68091B4019091B501892B41F48091AE
:100420009F019091A0019093B5018093B4014091F8
:10043000A1015091A2014115510541F44DB75EB79C
:1004400080919D0190919E01481B590B2091B40110
:100450003091B50124173507B0F4CA01821B930B04
:100460008617970780F0AB014E5F5F4F84179507A3
:1004700050F0420F531F5093B5014093B401F9015E
:100480006193719302C0E0E0F0E0CF01DF91CF9182
:100490000895CF93DF93009709F450C0EC012297A1
:1004A0001B821A82A091B601B091B701109709F191
:1004B00040E050E0AC17BD0708F1BB83AA83FE0102
:1004C00021913191E20FF31FAE17BF0779F48D919F
:1004D0009C911197280F391F2E5F3F4F3983288336
:1004E00012968D919C9113979B838A834115510598
:1004F00071F4D093B701C093B60120C012968D91CC
:100500009C911397AD01009711F0DC01D3CFFA0154
:10051000D383C28321913191E20FF31FCE17DF07FE
:1005200069F488819981280F391F2E5F3F4FFA01A6
:10053000318320838A819B8193838283DF91CF9152
:100540000895CF93DF93EC014B8140FF1AC046FF23
:100550000AC04F7B4B838E819F8101969F838E8340
:100560008A81282F2BC042FF13C0E881F981808146
:10057000282F332727FD30952115310529F44062B6
:100580004B832FEF3FEF1BC03196F983E88311C0F7
:10059000EA85FB85CE0109959C0197FF0AC09B81E6
:1005A0002F5F3F4F11F080E201C080E1892B8B83E8
:1005B000E8CF8E819F8101969F838E8330E0C901B1
:1005C000DF91CF910895A0E0B0E0E9EEF2E00C9465
:1005D0008505FE013596619171918091BA019091E6
:1005E000BB01AF010E94F8022096E2E00C94A10545
:1005F000ABE0B0E0EEEFF2E00C9475053C012B01AE
:100600005A01FC0117821682838181FD03C06FEFBE
:100610007FEFC6C19AE0892E1E010894211C311C6F
:10062000F3012381F20123FD859123FF81912F01A5
:10063000882309F4B2C1853239F423FD859123FF63
:1006400081912F01853229F490E0B3010E94EB04DF
:10065000E7CF982FFF24EE249924FFE1FF15D0F077
:100660009B3269F09C3228F4903259F0933291F425
:100670000EC09D3249F0903369F441E024C052E04D
:10068000F52A84E0F82A28C098E0F92A25C0E0E19C
:10069000FE2A22C0F7FC29C0892F80538A3070F4CB
:1006A000F6FE05C0989C902C1124980E15C0E89C6D
:1006B000E02C1124E80EF0E2FF2A0EC09E3229F44D
:1006C000F6FC6BC140E4F42A07C09C3619F450E8EC
:1006D000F52A02C0983649F4F20123FD959123FFD3
:1006E00091912F01992309F0B8CF892F8554833038
:1006F00018F08052833038F444E050E0A40EB51E68
:100700005FE359830FC0933631F0933779F0933517
:1007100009F056C020C0F5018081898342E050E095
:10072000A40EB51E610101E010E012C0F501C08009
:10073000D180F6FC03C06FEF7FEF02C0692D70E03F
:1007400042E050E0A40EB51EC6010E94E0048C01F8
:100750005FE7F52214C0F501C080D180F6FC03C02C
:100760006FEF7FEF02C0692D70E042E050E0A40E11
:10077000B51EC6010E94D5048C0150E8F52AF3FE8F
:1007800007C01AC080E290E0B3010E94EB04EA9433
:100790008E2D90E008171907A8F30EC0F601F7FC9C
:1007A0008591F7FE81916F0190E0B3010E94EB0407
:1007B000E110EA94015010400115110579F7EAC0E3
:1007C000943611F0993669F5F7FE08C0F5012081DD
:1007D00031814281538184E090E00AC0F50180813B
:1007E00091819C01442737FD4095542F82E090E091
:1007F000A80EB91E9FE6F92257FF09C050954095F3
:10080000309521953F4F4F4F5F4FE0E8FE2ACA01D8
:10081000B901A1012AE030E00E941705D82ED218B4
:1008200040C0953729F41F2D1F7E2AE030E01DC0FF
:100830001F2D197F9F3661F0903720F4983509F00D
:10084000ACC00FC0903739F0983709F0A6C004C08B
:1008500028E030E00AC0106114FD146020E130E0AF
:1008600004C014FD166020E132E017FF08C0F50156
:10087000608171818281938144E050E008C0F5017C
:1008800080819181BC0180E090E042E050E0A40EC4
:10089000B51EA1010E941705D82ED2188FE7F82E99
:1008A000F122F6FE0BC05EEFF522D91438F4F4FE07
:1008B00007C0F2FC05C08FEEF82202C01D2D01C05A
:1008C000192DF4FE0DC0FE01ED0DF11D8081803368
:1008D00019F499EEF92208C01F5FF2FE05C003C0AB
:1008E0008F2D867809F01F5F0F2DF3FC14C0F0FEEA
:1008F0000FC01E1510F09D2C0BC09D2C9E0C911A44
:100900001E2D06C080E290E0B3010E94EB041F5F41
:100910001E15C0F304C01E1510F4E11A01C0EE2428
:1009200004FF0FC080E390E0B3010E94EB0402FFDC
:100930001DC001FD03C088E790E00EC088E590E08F
:100940000BC0802F867891F001FF02C08BE201C0BE
:1009500080E2F7FC8DE290E0B3010E94EB0406C058
:1009600080E390E0B3010E94EB049A94D914C0F3A1
:10097000DA94F101ED0DF11D808190E0B3010E9448
:10098000EB04DD20A9F706C080E290E0B3010E94ED
:10099000EB04EA94EE20C1F743CEF3016681778140
:1009A000CB012B96E2E10C949105FC01059061507E
:1009B00070400110D8F7809590958E0F9F1F089575
:1009C000FC016150704001900110D8F7809590951E
:1009D0008E0F9F1F08950F931F93CF93DF938C016A
:1009E000EB018B8181FF1BC082FF0DC02E813F81F7
:1009F0008C819D812817390764F4E881F98101937E
:100A0000F983E88306C0E885F985802F0995892B4D
:100A100031F48E819F8101969F838E8302C00FEFF8
:100A20001FEFC801DF91CF911F910F910895FA0137
:100A3000AA27283051F1203181F1E8946F936E7F1D
:100A40006E5F7F4F8F4F9F4FAF4FB1E03ED0B4E00E
:100A50003CD0670F781F891F9A1FA11D680F791F4F
:100A60008A1F911DA11D6A0F711D811D911DA11D60
:100A700020D009F468943F912AE0269F1124301970
:100A8000305D3193DEF6CF010895462F4770405D0B
:100A90004193B3E00FD0C9F7F6CF462F4F70405DBA
:100AA0004A3318F0495D31FD4052419302D0A9F715
:100AB000EACFB4E0A6959795879577956795BA950F
:100AC000C9F700976105710508959B01AC010A2ED5
:100AD00006945795479537952795BA95C9F7620FAC
:100AE000731F841F951FA01D08952F923F924F9250
:100AF0005F926F927F928F929F92AF92BF92CF92AE
:100B0000DF92EF92FF920F931F93CF93DF93CDB7B6
:100B1000DEB7CA1BDB0B0FB6F894DEBF0FBECDBF2E
:100B200009942A88398848885F846E847D848C84FF
:100B30009B84AA84B984C884DF80EE80FD800C8108
:100B40001B81AA81B981CE0FD11D0FB6F894DEBFEB
:0C0B50000FBECDBFED010895F894FFCF5B
:100B5C0072656164696E672070696E2025630A0096
:100B6C00436865636B696E67207374617475732079
:100B7C006F662070696E2025640A00737461747549
:100B8C0073206368616E676564206F662070696EA0
:100B9C002025640A002325644025642400000000FD
:100BAC0002000000008601000000000000000100AF
:100BBC0000000000009501000029002900290029EF
:100BCC000023002300260026000205070102040171
:100BDC00032B002B002B00250025002500280028C6
:100BEC00002800280003040600030500022000BEB4
:040BFC0001000000F4
:00000001FF
