:100000000C9434000C9451000C9451000C94510049
:100010000C9451000C9451000C9451000C9451001C
:100020000C9451000C9451000C9451000C9451000C
:100030000C9451000C9451000C9451000C945100FC
:100040000C9451000C9451000C9451000C945100EC
:100050000C9451000C9451000C9451000C945100DC
:100060000C9451000C94510011241FBECFEFD8E026
:10007000DEBFCDBF11E0A0E0B1E0E8E7FAE002C0EA
:1000800005900D92AA35B107D9F711E0AAE5B1E0C4
:1000900001C01D92A436B107E1F70E94AB000C9499
:1000A0003A050C940000A82FB0E0FD01EE0FFF1FF1
:1000B000E05EFE4F0190F081E02D808190E0A05D38
:1000C000BE4F0C9002C0959587950A94E2F7817017
:1000D000089580536133C1F4A82FB0E0FD01EE0F05
:1000E000FF1FE85CFE4F0190F081E02D2081A45BB2
:1000F000BE4F81E090E00C9002C0880F991F0A94D7
:10010000E2F7282B208308956033C1F4A82FB0E0D4
:10011000FD01EE0FFF1FE85CFE4F0190F081E02D26
:100120002081A45BBE4F81E090E00C9002C0880F5C
:10013000991F0A94E2F78095822380830895FC0139
:100140008081833239F48281803421F4838161811A
:100150000E9469000895EF92FF920F931F93CF932F
:10016000DF9388E58AB989E284B985E387B90E947B
:10017000FC0084E091E0909361018093600182E152
:1001800091E090935F0180935E0182E390E00E9492
:100190002301EC0100E030E0E32E31E0F32E80910A
:1001A0005E0190915F010E942802182F90E00E944A
:1001B0007F0218831432C9F4249700D000D0EDB721
:1001C000FEB73196ADB7BEB71296FC92EE9211977C
:1001D0008881828313820E946A020F900F900F9091
:1001E0000F90CE010E949F00045021960F5F0233B2
:1001F000B0F2E29700E0D3CF1092C50087E680937B
:10020000C400E0ECF0E080818D7F808386E0809305
:10021000C20088E18093C10008951F93182F8A308F
:1002200019F48DE00E940D018091C00085FFFCCF84
:100230001093C6001F9108958091C00087FFFCCFE6
:100240008091C6000895CF93DF93BC018230910561
:1002500010F462E070E0A0915C01B0915D01ED01ED
:10026000E0E0F0E040E050E021C08881998186170D
:10027000970769F48A819B81309719F09383828371
:1002800004C090935D0180935C01FE0134C0681747
:10029000790738F44115510519F08417950708F4CA
:1002A000AC01FE018A819B819C01E9012097E9F65E
:1002B00041155105A9F1CA01861B970B049708F453
:1002C000BA01E0E0F0E02AC08D919C91119784176B
:1002D0009507F9F46417750781F412968D919C9136
:1002E0001397309719F09383828304C090935D0134
:1002F00080935C01FD0132964FC0CA01861B970BAB
:10030000FD01E80FF91F6193719302978D939C9300
:1003100043C0FD01828193819C01D9011097A1F610
:1003200080915A0190915B01892B41F48091560193
:100330009091570190935B0180935A01409158012D
:10034000509159014115510541F44DB75EB7809167
:10035000540190915501481B590B20915A0130913D
:100360005B0124173507B0F4CA01821B930B861773
:10037000970780F0AB014E5F5F4F8417950750F0F1
:10038000420F531F50935B0140935A01F90161934F
:10039000719302C0E0E0F0E0CF01DF91CF910895CA
:1003A000CF93DF93009709F450C0EC0122971B8292
:1003B0001A82A0915C01B0915D01109709F140E0B3
:1003C00050E0AC17BD0708F1BB83AA83FE01219161
:1003D0003191E20FF31FAE17BF0779F48D919C9115
:1003E0001197280F391F2E5F3F4F398328831296AC
:1003F0008D919C9113979B838A834115510571F4CC
:10040000D0935D01C0935C0120C012968D919C91A8
:100410001397AD01009711F0DC01D3CFFA01D3831C
:10042000C28321913191E20FF31FCE17DF0769F4E8
:1004300088819981280F391F2E5F3F4FFA01318340
:1004400020838A819B8193838283DF91CF9108955A
:10045000CF93DF93EC014B8140FF1AC046FF0AC0E7
:100460004F7B4B838E819F8101969F838E838A81F0
:10047000282F2BC042FF13C0E881F9818081282FEB
:10048000332727FD30952115310529F440624B8330
:100490002FEF3FEF1BC03196F983E88311C0EA8547
:1004A000FB85CE0109959C0197FF0AC09B812F5FB8
:1004B0003F4F11F080E201C080E1892B8B83E8CFB0
:1004C0008E819F8101969F838E8330E0C901DF91E9
:1004D000CF910895A0E0B0E0E0E7F2E00C941305BE
:1004E000FE01359661917191809160019091610159
:1004F000AF010E9486022096E2E00C942F056091E5
:100500006001709161010E9479040895ABE0B0E050
:10051000ECE8F2E00C9403053C012B015A01FC01CC
:1005200017821682838181FD03C06FEF7FEFC6C102
:100530009AE0892E1E010894211C311CF3012381AD
:10054000F20123FD859123FF81912F01882309F476
:10055000B2C1853239F423FD859123FF81912F01AA
:10056000853229F490E0B3010E947904E7CF982FF7
:10057000FF24EE249924FFE1FF15D0F09B3269F0AF
:100580009C3228F4903259F0933291F40EC09D328F
:1005900049F0903369F441E024C052E0F52A84E048
:1005A000F82A28C098E0F92A25C0E0E1FE2A22C0F6
:1005B000F7FC29C0892F80538A3070F4F6FE05C0FD
:1005C000989C902C1124980E15C0E89CE02C1124C6
:1005D000E80EF0E2FF2A0EC09E3229F4F6FC6BC151
:1005E00040E4F42A07C09C3619F450E8F52A02C00A
:1005F000983649F4F20123FD959123FF91912F0143
:10060000992309F0B8CF892F8554833018F0805290
:10061000833038F444E050E0A40EB51E5FE3598304
:100620000FC0933631F0933779F0933509F056C007
:1006300020C0F5018081898342E050E0A40EB51E00
:10064000610101E010E012C0F501C080D180F6FC2C
:1006500003C06FEF7FEF02C0692D70E042E050E011
:10066000A40EB51EC6010E946E048C015FE7F52240
:1006700014C0F501C080D180F6FC03C06FEF7FEF9E
:1006800002C0692D70E042E050E0A40EB51EC60124
:100690000E9463048C0150E8F52AF3FE07C01AC0DB
:1006A00080E290E0B3010E947904EA948E2D90E0FC
:1006B00008171907A8F30EC0F601F7FC8591F7FE9D
:1006C00081916F0190E0B3010E947904E110EA94F6
:1006D000015010400115110579F7EAC0943611F068
:1006E000993669F5F7FE08C0F50120813181428114
:1006F000538184E090E00AC0F501808191819C01E2
:10070000442737FD4095542F82E090E0A80EB91E93
:100710009FE6F92257FF09C05095409530952195E5
:100720003F4F4F4F5F4FE0E8FE2ACA01B901A101D8
:100730002AE030E00E94A504D82ED21840C0953798
:1007400029F41F2D1F7E2AE030E01DC01F2D197FC8
:100750009F3661F0903720F4983509F0ACC00FC097
:10076000903739F0983709F0A6C004C028E030E08F
:100770000AC0106114FD146020E130E004C014FDD3
:10078000166020E132E017FF08C0F5016081718139
:100790008281938144E050E008C0F501808191811D
:1007A000BC0180E090E042E050E0A40EB51EA10143
:1007B0000E94A504D82ED2188FE7F82EF122F6FE5B
:1007C0000BC05EEFF522D91438F4F4FE07C0F2FC3A
:1007D00005C08FEEF82202C01D2D01C0192DF4FEB8
:1007E0000DC0FE01ED0DF11D8081803319F499EEED
:1007F000F92208C01F5FF2FE05C003C08F2D867866
:1008000009F01F5F0F2DF3FC14C0F0FE0FC01E1582
:1008100010F09D2C0BC09D2C9E0C911A1E2D06C015
:1008200080E290E0B3010E9479041F5F1E15C0F3BF
:1008300004C01E1510F4E11A01C0EE2404FF0FC01D
:1008400080E390E0B3010E94790402FF1DC001FD26
:1008500003C088E790E00EC088E590E00BC0802FD1
:10086000867891F001FF02C08BE201C080E2F7FCC4
:100870008DE290E0B3010E94790406C080E390E02D
:10088000B3010E9479049A94D914C0F3DA94F10167
:10089000ED0DF11D808190E0B3010E947904DD200F
:1008A000A9F706C080E290E0B3010E947904EA94BF
:1008B000EE20C1F743CEF30166817781CB012B9601
:1008C000E2E10C941F05FC0105906150704001109D
:1008D000D8F7809590958E0F9F1F0895FC01615069
:1008E000704001900110D8F7809590958E0F9F1F52
:1008F00008950F931F93CF93DF938C01EB018B81AE
:1009000081FF1BC082FF0DC02E813F818C819D81A4
:100910002817390764F4E881F9810193F983E883A2
:1009200006C0E885F985802F0995892B31F48E81E1
:100930009F8101969F838E8302C00FEF1FEFC80136
:10094000DF91CF911F910F910895FA01AA272830C6
:1009500051F1203181F1E8946F936E7F6E5F7F4F8C
:100960008F4F9F4FAF4FB1E03ED0B4E03CD0670F08
:10097000781F891F9A1FA11D680F791F8A1F911D5B
:10098000A11D6A0F711D811D911DA11D20D009F4AB
:1009900068943F912AE0269F11243019305D3193ED
:1009A000DEF6CF010895462F4770405D4193B3E0D6
:1009B0000FD0C9F7F6CF462F4F70405D4A3318F07D
:1009C000495D31FD4052419302D0A9F7EACFB4E02E
:1009D000A6959795879577956795BA95C9F70097E6
:1009E0006105710508959B01AC010A2E0694579587
:1009F000479537952795BA95C9F7620F731F841FDE
:100A0000951FA01D08952F923F924F925F926F9273
:100A10007F928F929F92AF92BF92CF92DF92EF928E
:100A2000FF920F931F93CF93DF93CDB7DEB7CA1B0F
:100A3000DB0B0FB6F894DEBF0FBECDBF09942A883A
:100A4000398848885F846E847D848C849B84AA84E2
:100A5000B984C884DF80EE80FD800C811B81AA816F
:100A6000B981CE0FD11D0FB6F894DEBF0FBECDBF3A
:080A7000ED010895F894FFCF99
:100A780025630A0000000002000000000D010000CC
:100A88000000000000010000000000001C01000040
:100A98002900290029002900230023002600260018
:100AA80002050701020401032B002B002B0025007F
:100AB8002500250028002800280028000304060037
:0A0AC8000305000220006401000095
:00000001FF
