:100000000C9434000C9451000C9451000C94510049
:100010000C9451000C9451000C9451000C9451001C
:100020000C9451000C9451000C9451000C9451000C
:100030000C9451000C9451000C9451000C945100FC
:100040000C9451000C9451000C9451000C945100EC
:100050000C9451000C9451000C9451000C945100DC
:100060000C9451000C94510011241FBECFEFD8E026
:10007000DEBFCDBF11E0A0E0B1E0E0ECFAE002C0ED
:1000800005900D92A033B107D9F711E0A0E3B1E0DC
:1000900001C01D92AB33B107E1F70E9487000C94B9
:1000A0005E050C9400000F931F93CF93DF93EC0138
:1000B0008881833239F58A81803421F500D000D0DF
:1000C000EDB7FEB7319600E011E0ADB7BEB71296BE
:1000D0001C930E9311978981828313820E94600280
:1000E000EDB7FEB73196ADB7BEB712961C930E931F
:1000F00011978B81828313820E9460020F900F9070
:100100000F900F90DF91CF911F910F910895CF9293
:10011000DF92EF92FF920F931F93CF93DF930E9492
:10012000CF008EE091E090933801809337018CE10D
:1001300091E090933601809335011092300184E66E
:1001400090E061E070E00E94F600EC0184E0C82ECF
:1001500081E0D82EEC2EFF2480913501909136015C
:100160000E941E0288838432C1F48E010450104024
:10017000C8010E947502C8010E94530000D000D03F
:10018000EDB7FEB7D282C182D483C3830E946002DE
:10019000E7010F900F900F900F902196DDCF1092F6
:1001A000C50087E68093C400E0ECF0E080818D7F9D
:1001B000808386E08093C20088E18093C100089527
:1001C0001F93182F8A3019F48DE00E94E00080916F
:1001D000C00085FFFCCF1093C6001F910895809149
:1001E000C00087FFFCCF8091C60008950F931F9336
:1001F000CF93DF93689F8001699F100D789F100D4A
:100200001124C8010E941201EC01009729F060E05E
:1002100070E0A8010E941702CE01DF91CF911F91DB
:100220000F910895CF93DF93BC018230910510F4B4
:1002300062E070E0A0913301B0913401ED01E0E0A3
:10024000F0E040E050E021C088819981861797074F
:1002500069F48A819B81309719F09383828304C06B
:100260009093340180933301FE0134C068177907FD
:1002700038F44115510519F08417950708F4AC01BD
:10028000FE018A819B819C01E9012097E9F64115D5
:100290005105A9F1CA01861B970B049708F4BA010E
:1002A000E0E0F0E02AC08D919C91119784179507AA
:1002B000F9F46417750781F412968D919C91139748
:1002C000309719F09383828304C090933401809314
:1002D0003301FD0132964FC0CA01861B970BFD0109
:1002E000E80FF91F6193719302978D939C9343C01C
:1002F000FD01828193819C01D9011097A1F6809123
:10030000310190913201892B41F480912C0190911F
:100310002D01909332018093310140912E01509133
:100320002F014115510541F44DB75EB780912A0167
:1003300090912B01481B590B2091310130913201D2
:1003400024173507B0F4CA01821B930B8617970751
:1003500080F0AB014E5F5F4F8417950750F0420F5E
:10036000531F5093320140933101F901619371930E
:1003700002C0E0E0F0E0CF01DF91CF910895CF938C
:10038000DF93009709F450C0EC0122971B821A8278
:10039000A0913301B0913401109709F140E050E091
:1003A000AC17BD0708F1BB83AA83FE0121913191EF
:1003B000E20FF31FAE17BF0779F48D919C9111974F
:1003C000280F391F2E5F3F4F3983288312968D9156
:1003D0009C9113979B838A834115510571F4D093A7
:1003E0003401C093330120C012968D919C911397D4
:1003F000AD01009711F0DC01D3CFFA01D383C283A2
:1004000021913191E20FF31FCE17DF0769F4888144
:100410009981280F391F2E5F3F4FFA0131832083C6
:100420008A819B8193838283DF91CF910895DC0140
:1004300001C06D9341505040E0F70895CF93DF9392
:10044000EC014B8140FF1AC046FF0AC04F7B4B8333
:100450008E819F8101969F838E838A81282F2BC056
:1004600042FF13C0E881F9818081282F332727FDBF
:1004700030952115310529F440624B832FEF3FEF72
:100480001BC03196F983E88311C0EA85FB85CE0154
:1004900009959C0197FF0AC09B812F5F3F4F11F088
:1004A00080E201C080E1892B8B83E8CF8E819F8120
:1004B00001969F838E8330E0C901DF91CF9108952B
:1004C000A0E0B0E0E6E6F2E00C943705FE013596D8
:1004D000619171918091370190913801AF010E9433
:1004E000AA022096E2E00C9453050F931F93CF933A
:1004F000DF938C01E0913701F0913801838181FF16
:1005000021C0C0E0D0E00DC0E0913701F09138018A
:1005100020853185BF01F9010995892B11F0CFEFB5
:10052000DFEFF80181918F01882371F7E0913701A6
:10053000F0913801208531858AE0BF01F9010995E4
:10054000892B11F0CFEFDFEFCE01DF91CF911F911B
:100550000F910895ABE0B0E0E0EBF2E00C942705DA
:100560003C012B015A01FC0117821682838181FD17
:1005700003C06FEF7FEFC6C19AE0892E1E01089479
:10058000211C311CF3012381F20123FD859123FFFE
:1005900081912F01882309F4B2C1853239F423FDFA
:1005A000859123FF81912F01853229F490E0B301D9
:1005B0000E949D04E7CF982FFF24EE249924FFE1A9
:1005C000FF15D0F09B3269F09C3228F4903259F03C
:1005D000933291F40EC09D3249F0903369F441E0BA
:1005E00024C052E0F52A84E0F82A28C098E0F92ACD
:1005F00025C0E0E1FE2A22C0F7FC29C0892F8053E4
:100600008A3070F4F6FE05C0989C902C1124980E48
:1006100015C0E89CE02C1124E80EF0E2FF2A0EC081
:100620009E3229F4F6FC6BC140E4F42A07C09C36E4
:1006300019F450E8F52A02C0983649F4F20123FD76
:10064000959123FF91912F01992309F0B8CF892F1C
:100650008554833018F08052833038F444E050E001
:10066000A40EB51E5FE359830FC0933631F0933764
:1006700079F0933509F056C020C0F5018081898357
:1006800042E050E0A40EB51E610101E010E012C08E
:10069000F501C080D180F6FC03C06FEF7FEF02C090
:1006A000692D70E042E050E0A40EB51EC6010E9424
:1006B00092048C015FE7F52214C0F501C080D1805F
:1006C000F6FC03C06FEF7FEF02C0692D70E042E0DF
:1006D00050E0A40EB51EC6010E9487048C0150E8AC
:1006E000F52AF3FE07C01AC080E290E0B3010E9431
:1006F0009D04EA948E2D90E008171907A8F30EC008
:10070000F601F7FC8591F7FE81916F0190E0B3014E
:100710000E949D04E110EA9401501040011511055A
:1007200079F7EAC0943611F0993669F5F7FE08C0FA
:10073000F501208131814281538184E090E00AC03B
:10074000F501808191819C01442737FD4095542F0C
:1007500082E090E0A80EB91E9FE6F92257FF09C07B
:1007600050954095309521953F4F4F4F5F4FE0E8B2
:10077000FE2ACA01B901A1012AE030E00E94C904A1
:10078000D82ED21840C0953729F41F2D1F7E2AE09D
:1007900030E01DC01F2D197F9F3661F0903720F487
:1007A000983509F0ACC00FC0903739F0983709F090
:1007B000A6C004C028E030E00AC0106114FD146037
:1007C00020E130E004C014FD166020E132E017FFA4
:1007D00008C0F501608171818281938144E050E01D
:1007E00008C0F50180819181BC0180E090E042E089
:1007F00050E0A40EB51EA1010E94C904D82ED21843
:100800008FE7F82EF122F6FE0BC05EEFF522D91429
:1008100038F4F4FE07C0F2FC05C08FEEF82202C0E7
:100820001D2D01C0192DF4FE0DC0FE01ED0DF11DB1
:100830008081803319F499EEF92208C01F5FF2FE1F
:1008400005C003C08F2D867809F01F5F0F2DF3FCC4
:1008500014C0F0FE0FC01E1510F09D2C0BC09D2C77
:100860009E0C911A1E2D06C080E290E0B3010E94FA
:100870009D041F5F1E15C0F304C01E1510F4E11A7D
:1008800001C0EE2404FF0FC080E390E0B3010E949A
:100890009D0402FF1DC001FD03C088E790E00EC06B
:1008A00088E590E00BC0802F867891F001FF02C0B0
:1008B0008BE201C080E2F7FC8DE290E0B3010E9480
:1008C0009D0406C080E390E0B3010E949D049A94C9
:1008D000D914C0F3DA94F101ED0DF11D808190E09F
:1008E000B3010E949D04DD20A9F706C080E290E0DC
:1008F000B3010E949D04EA94EE20C1F743CEF301B8
:1009000066817781CB012B96E2E10C944305FC01D3
:100910000590615070400110D8F7809590958E0F2A
:100920009F1F0895FC016150704001900110D8F79D
:10093000809590958E0F9F1F08950F931F93CF93CF
:10094000DF938C01EB018B8181FF1BC082FF0DC007
:100950002E813F818C819D812817390764F4E881BD
:10096000F9810193F983E88306C0E885F985802F32
:100970000995892B31F48E819F8101969F838E8307
:1009800002C00FEF1FEFC801DF91CF911F910F91B0
:100990000895FA01AA27283051F1203181F1E89415
:1009A0006F936E7F6E5F7F4F8F4F9F4FAF4FB1E062
:1009B0003ED0B4E03CD0670F781F891F9A1FA11D5D
:1009C000680F791F8A1F911DA11D6A0F711D811D5E
:1009D000911DA11D20D009F468943F912AE0269F23
:1009E00011243019305D3193DEF6CF010895462F82
:1009F0004770405D4193B3E00FD0C9F7F6CF462F63
:100A00004F70405D4A3318F0495D31FD40524193CB
:100A100002D0A9F7EACFB4E0A69597958795779588
:100A20006795BA95C9F700976105710508959B010F
:100A3000AC010A2E06945795479537952795BA9598
:100A4000C9F7620F731F841F951FA01D08952F9271
:100A50003F924F925F926F927F928F929F92AF924E
:100A6000BF92CF92DF92EF92FF920F931F93CF939B
:100A7000DF93CDB7DEB7CA1BDB0B0FB6F894DEBF32
:100A80000FBECDBF09942A88398848885F846E8458
:100A90007D848C849B84AA84B984C884DF80EE80A2
:100AA000FD800C811B81AA81B981CE0FD11D0FB6AB
:100AB000F894DEBF0FBECDBFED010895F894FFCFCF
:100AC00025630A006265666F726525700A00000082
:100AD000000200000000E000000000000000000133
:100AE000000000000000EF00000020003B010000BB
:00000001FF
